:0200000460009A
:10000000464346420004015600000000000303007E
:1000100000000000000000000000000000000000E0
:1000200000000000000000000000000000000000D0
:1000300000000000000000000000000000000000C0
:1000400000000000010807000000000000000000A0
:100050000000800000000000000000000000000020
:100060000000000000000000000000000000000090
:1000700000000000000000000F0000000000000071
:100080006B0418080832042600000000000000007D
:10009000A50404240000000000000000000000008F
:1000A0000104042000000000000000000000000027
:1000B0000604000000000000000000000000000036
:1000C000AB04183004240000000000000000000011
:1000D000D704180800000000000000000000000025
:1000E0000000000000000000000000000000000010
:1000F0000000000000000000000000000000000000
:100100005204180800000000000000000000000079
:100110000204180804200000000000000000000095
:1001200000000000000000000000000000000000CF
:10013000C7040000000000000000000000000000F4
:1001400000000000000000000000000000000000AF
:10015000000000000000000000000000000000009F
:10016000000000000000000000000000000000008F
:10017000000000000000000000000000000000007F
:10018000000000000201000002030000040500005E
:1001900002090000040B0000000000000000000045
:1001A000000000000000000000000000000000004F
:1001B000000000000000000000000000000000003F
:1001C0000002000000000400010100000100000026
:1001D000000004000000000000000000000000001B
:1001E000000000000000000000000000000000000F
:1001F00000000000000000000000000000000000FF
:0200000460009A
:10100000D10020410020006000000000000000002E
:1010100020100060001000600000000000000000D0
:10102000000000600000000400000000FFFFFFFF60
:0200000460009A
:1020000000000220312600605D260060DD250060B2
:10201000DD250060592600605926006000000000A0
:1020200000000000000000000000000065260060C5
:102030005926006000000000232500602155006043
:102040007126006075260060792600607D2600609C
:102050008126006085260060892600608D2600604C
:102060009126006095260060992600609D260060FC
:10207000A1260060A5260060A9260060AD260060AC
:10208000B12600605926006059260060592600607C
:10209000894A0060B9260060BD260060C126006044
:1020A000C5260060C9260060CD260060D1260060EC
:1020B000D5260060D9260060DD260060E12600609C
:1020C000E5260060E9260060ED260060F12600604C
:1020D000F5260060F9260060592600605926006048
:1020E0005926006059260060592600605926006074
:1020F0005926006059260060592600605926006064
:102100005926006059260060592600605926006053
:102110005926006059260060592600605926006043
:10212000FD26006001270060052700600927006088
:102130000D2700605926006059260060592600606E
:102140005926006059260060592600605926006013
:102150005926006059260060592600605926006003
:1021600059260060592600605926006059260060F3
:1021700059260060592600605926006059260060E3
:1021800089440060A9440060C9440060E9440060DB
:1021900009450060294500604945006069450060C7
:1021A00089450060A945006011270060152700607F
:1021B00059260060592600605926006059260060A3
:1021C0005926006059260060592600605926006093
:1021D0005926006059260060592600605926006083
:1021E0005926006059260060592600605926006073
:1021F00019270060592600601D2700602127006014
:1022000059260060592600602527006029270060B4
:102210005926006059260060592600605926006042
:102220005926006059260060592600605926006032
:102230005926006059260060592600605926006022
:102240005926006059260060592600605926006012
:102250005926006059260060592600605926006002
:1022600059260060592600605926006059260060F2
:1022700059260060592600605926006059260060E2
:1022800059260060592600605926006059260060D2
:1022900059260060592600605926006059260060C2
:1022A00059260060592600605926006059260060B2
:1022B00059260060592600605926006059260060A2
:1022C0005926006059260060592600605926006092
:1022D0005926006059260060592600605926006082
:1022E0005926006059260060592600605926006072
:1022F0005926006059260060592600605926006062
:102300005926006059260060592600605926006051
:102310005926006059260060592600605926006041
:102320005926006059260060592600605926006031
:102330005926006059260060592600605926006021
:102340005926006059260060592600605926006011
:102350005926006059260060592600605926006001
:1023600059260060592600605926006059260060F1
:1023700059260060592600605926006059260060E1
:1023800059260060592600605926006059260060D1
:1023900059260060592600605926006059260060C1
:1023A00059260060592600605926006059260060B1
:1023B00059260060592600605926006059260060A1
:1023C0005926006059260060592600605926006091
:1023D0005926006059260060592600605926006081
:1023E0005926006059260060592600605926006071
:1023F000592600605926006059260060FFFFFFFF44
:1024000000F002F800F065F80AA090E8000C8244A1
:102410008344AAF10107DA4501D100F05AF8AFF27E
:10242000090EBAE80F0013F0010F18BFFB1A43F0B2
:1024300001031847500A0100700A01000A444FF0D6
:10244000000C10F8013B13F0070408BF10F8014B13
:102450001D1108BF10F8015B641E05D010F8016B58
:10246000641E01F8016BF9D113F0080F1EBF10F8BC
:10247000014BAD1C0C1B09D16D1E58BF01F801CBDF
:10248000FAD505E014F8016B01F8016B6D1EF9D562
:102490009142D6D370470000002300240025002677
:1024A000103A28BF78C1FBD8520728BF30C148BFB7
:1024B0000B6070471FB50EF0EFF900F075FB0400DC
:1024C000002000210EF0D2F9401C60601FBD10B545
:1024D00010BDDFF810D0FFF7EDFF00F0A9FC00F011
:1024E00065FC00000000022003B4FFF7F0FF03BC0E
:1024F00004F08AFCEFF3108072B6704780F3108806
:102500007047444A1368012B04D04FF00103136055
:10251000414A1060414A116041484FF080510160CA
:102520007047EFF3108272B63A48016851B34FF02A
:10253000000101603848016891B1EFF309811EF094
:10254000100F08BF21ED108B21E9F00F4FF00004B0
:102550001EF0100F08BF012441F8044D006801600F
:102560002E490968096808C9B1E8F00F002B18BFA7
:10257000B1EC108B81F309884EF0100E002B18BFC0
:102580002EF0100E82F310884EF0040E704723498F
:102590000860EFF3148222F0040282F314881E49CB
:1025A0004FF0000008601B494FF0010008601D4813
:1025B0001D49D0F8002041EA0201016018484FF09F
:1025C0008051016019480068006880F3088861B68E
:1025D00062B6BFF34F8FBFF36F8F70471EF0040FCB
:1025E0000CBFEFF30880EFF3098020E9F00F40F80B
:1025F00004ED40F804ED1EF0040F0CBF80F30888D2
:1026000080F3098800B509F06BFB5DF804EB4EF030
:10261000040E70477C110020B80F0020C40F00206A
:1026200004ED00E020ED00E00000FFFF08ED00E019
:1026300072B60548054901600A6882F308880448B3
:10264000804762B60348004708ED00E000200060C4
:102650003155006001240060FFF7FEBF334800479A
:102660003348004733480047334800473348004762
:102670003348004733480047334800473348004752
:102680003348004733480047334800473348004742
:102690003348004733480047334800473348004732
:1026A0003348004733480047334800473348004722
:1026B0003348004733480047334800473348004712
:1026C0003348004733480047334800473348004702
:1026D00033480047334800473348004733480047F2
:1026E00033480047334800473348004733480047E2
:1026F00033480047334800473348004733480047D2
:1027000033480047334800473348004733480047C1
:1027100033480047334800473348004733480047B1
:102720003348004733480047334800475D26006080
:10273000DD250060652600602325006021550060CE
:10274000592600605926006059260060592600600D
:1027500059260060592600605926006059260060FD
:1027600059260060592600605926006059260060ED
:1027700059260060592600605926006059260060DD
:1027800059260060614A0060A14A0060C94A0060A1
:10279000F14A0060114B0060394B0060614B0060F2
:1027A000894B006059260060592600605926006058
:1027B000592600605926006059260060592600609D
:1027C000592600605926006059260060592600608D
:1027D000592600605926006059260060592600607D
:1027E000592600605926006059260060592600606D
:1027F0005926006059260060592600607047000085
:1028000010B500F0D1F9001D10BD00BF61E000005F
:1028100070B5064600F0CCF90468054630460A2239
:10282000002100F018FA2C6070BD2DE9F05F93468E
:102830000F4680460446002600F0BAF9D0F8009012
:10284000824614F8015B2DB1FFF7DAFF0068405DA6
:10285000C007F6D12B2D02D02D2D1AD0641E0021D9
:10286000CAF800105A463946204600F0A5F901463C
:1028700027B13868A04201D1C7F80080DAF800001B
:10288000022809D0CAF80090700505D54842BDE875
:10289000F09F46F48066E2E70846F8E70EB5054685
:1028A00014460E4613A000F019FA284600F016FA56
:1028B00016A000F013FA304600F010FA15A000F050
:1028C0000DFA00218DF80B100A210DF10A008DF888
:1028D0000A1008E094FBF1F201FB124294FBF1F4C0
:1028E000303200F8012D002CF4DC00F0F7F900F094
:1028F000EAF900002A2A2A20617373657274696FED
:102900006E206661696C65643A2000002C2066695F
:102910006C6520002C206C696E652000401ECAB2D8
:1029200010F8011F8A4202D00029F9D10020704717
:1029300040EA010310B59B070FD1042A0DD310C83C
:1029400008C9121F9C42F8D020BA19BA884201D98E
:10295000012010BD4FF0FF3010BD1AB1D30703D0D6
:10296000521C07E0002010BD10F8013B11F8014B8C
:102970001B1B07D110F8013B11F8014B1B1B01D1A8
:10298000921EF1D1184610BD40EA0103024630B54F
:102990009B0710D14FF0013400E008C208C91D1B8D
:1029A0009D4315EAC41FF8D013F0FF0102F8011B84
:1029B0000DD01B0AF8E711F8013B002B02F8013B90
:1029C00005D011F8013B002B02F8013BF3D130BDDB
:1029D00010B5431C02E010F8011B71B18107FAD158
:1029E0004FF0013202C88C1A8C4314EAC211F9D09C
:1029F000C01A0A0603D0C01E10BDC01A10BD0A04BA
:102A000001D0801E10BD0902FCD0401E10BD40EA5E
:102A1000010370B59B072ED14FF00136042A2AD34B
:102A200008C810C99D1B9D43121F15EAC61517D073
:102A3000D8B2E1B2401A50EA056110D198B2A1B201
:102A4000401A50EA05410AD123F07F4024F07F412B
:102A5000401A50EA052102D1180EA0EB146070BD97
:102A6000A342DBD018BA21BA884201D9012070BD37
:102A70004FF0FF3070BD0AB9002070BD10F8013B67
:102A800011F8014B63B1A3420AD1521E08D010F8CD
:102A9000013B11F8014B1BB1A34201D1521EEDD1F4
:102AA000181B70BD421E12F8013F002BFBD111F81C
:102AB000013B002B02F8013BF9D1704701B501F051
:102AC000FF03114643EA032242EA024200F012F9F0
:102AD00001BD10B5044610F0030F08BF11F0030F3D
:102AE00040F015804FF0013E121FC0F20E8051F8E9
:102AF000043BA3EB0E0C2CEA030C1CEACE1C08BF13
:102B000040F8043BF0D0A1F1040102F10402521E8E
:102B100008DB11F8013B00F8013B002BF7D111460F
:102B200000F0E6F8204610BD30B44FF0013C50F8FC
:102B3000042BCCFA52F451F8043BD51A20D1FCB93D
:102B400050F8042BCCFA52F451F8043BD51A17D1A3
:102B5000B4B950F8042BCCFA52F451F8043BD51A0E
:102B60000ED16CB950F8042BCCFA52F451F8043B56
:102B7000D51A05D1002CDAD030BC4FF000007047D8
:102B800029BAB1FA81F111F01801D1F12000844085
:102B9000F2D1CA40CB4012F0FF0213F0FF0330BC69
:102BA000D01A70477047000000487047880C00201A
:102BB00000487047680C00202DE9F05F82461546FA
:102BC0008B4600270AF10104B9460078302801D06D
:102BD0009DB113E014F8010B0127782803D0582881
:102BE00001D045B10AE00DB1102D07D1002714F82E
:102BF000010B102502E0082500E00A250026B0465A
:102C00000EE005FB080005FB06F101271FFA80F81E
:102C100001EB1046B6F5803F00D3B94614F8010B1E
:102C2000294600F087F80028EBDABBF1000F05D049
:102C30000FB1641E00E05446CBF80040B9F1000F1C
:102C400006D0FFF7B5FF02210160C81EBDE8F09F66
:102C500048EA0640FAE72DE9F04791460F468046DC
:102C60000446002614F8015B2DB1FFF7C9FD00688A
:102C7000405DC007F6D12B2D02D02D2D18D0641E3B
:102C80004A4639462046FFF797FF27B13968A142E7
:102C900001D1C7F800804FF0020471050BD5404206
:102CA000002803DDFFF784FF0460A007BDE8F0877C
:102CB00046F48066E4E70028F8DAFFF779FF04605D
:102CC0006FF00040F2E710B5002000F041F8FFF788
:102CD000FEFBBDE81040012004F096B810B5044694
:102CE00002E0641C04F0BCFA20780028F9D110BD81
:102CF0004FF000020429C0F0128010F0030C00F025
:102D00003080CCF1040CBCF1020F18BF00F8012B8D
:102D1000A8BF20F8022BA1EB0C0100F022B85FEA5B
:102D2000C17C24BF00F8012B00F8012B48BF00F83C
:102D3000012B70473A2800D2303820F02002412A77
:102D400001D3A2F13700884201D34FF0FF30704722
:102D500010B500F039F8BDE8104000F030B84FF081
:102D6000000200B5134694469646203922BFA0E8DB
:102D70000C50A0E80C50B1F12001BFF4F7AF0907E7
:102D800028BFA0E80C5048BF0CC05DF804EB8900D8
:102D900028BF40F8042B08BF704748BF20F8022B1B
:102DA00011F0804F18BF00F8012B704710B5044692
:102DB000AFF300802046BDE81040FFF795BB002828
:102DC00001D004F021B8704710B5002102A000F036
:102DD00013F8012010BD0000534947414252543AB4
:102DE0002041626E6F726D616C207465726D696EE8
:102DF0006174696F6E00000070B505460C460A20CC
:102E000000E06D1C04F02CFA35B128780028F8D1C8
:102E100002E0641C04F024FA14B120780028F8D1F0
:102E2000BDE870400A2004F01BBA0000000000005A
:102E300080B50DF015FB002080BD000000000000F3
:102E4000BFF34F8FBFF36F8F4EF62451CEF20001C8
:102E5000086820F4803008604EF69451CEF20001EC
:102E6000086820F0010008607047000000000000C2
:102E700081B00090BFF34F8FBFF36F8F009840F089
:102E800001004EF69451CEF2000108604EF6245136
:102E9000CEF20001086840F48030086001B070474D
:102EA00080B58CB04FF4004001F076FA48F2C021B2
:102EB000C4F20D01086840F480300860086820F40E
:102EC0000030086043F20060C0F26E1001F070FA4A
:102ED000002001F03DF901F07FF901200A9001F096
:102EE00073FA0A994CF20002C4F20F0210687F23B1
:102EF00063F30700106046F61840C8F2000001F0C6
:102F0000E3F90A9943F61410C1F2004001F0DCF92C
:102F10000C21C4F208010868132262F3040008605F
:102F2000FFE70020C4F20800006800F00040B0F1A4
:102F3000004F01D0FFE7F4E74EF61420C0F2004046
:102F40000021089101F078F94FF4887000F064FED8
:102F50004FF4847000F060FE40F2162000F05CFE3A
:102F60004FF4067000F058FE40F20E2000F054FEC0
:102F700046F61400C8F200000321079101F05CF945
:102F80004EF21000C4F200000121099101F054F941
:102F900008994FF61430C8F2000001F04DF94FF4D3
:102FA0008A7000F039FE4FF48B7000F035FE182067
:102FB00000F032FE1A2000F02FFE4FF4867000F071
:102FC0002BFE09994EF21C00C8F2070001F034F9FB
:102FD00040F2026000F020FE09994EF62430C8F25B
:102FE000000001F029F9089943F21C00C8F2000022
:102FF00001F06AF940F2046000F00EFE09994FF208
:103000002400C8F2000001F017F9089943F21C10DF
:10301000C8F2000001F058F940F2022000F0FCFD77
:1030200009994EF63C30C8F2000001F005F9089904
:1030300046F63C10C8F2000001F046F94FF48070EB
:1030400000F0EAFD4FF4817000F0E6FD4FF482706D
:1030500000F0E2FD4FF4837000F0DEFD4FF6182023
:10306000C8F20000042101F0E7F846F21840C8F267
:1030700000000221059101F027F9162000F0CCFD97
:10308000079947F62410C8F2000001F0D5F8089916
:1030900046F61860C8F2000001F016F940F212502E
:1030A00000F0BAFD07994EF22860C8F2000001F066
:1030B000C3F809994EF22800C8F2070001F0BCF8E5
:1030C000089946F61C20C8F2000001F0FDF840F215
:1030D000145000F0A1FD07994EF22C60C8F20000D8
:1030E00001F0AAF809994EF22C00C8F2070001F08D
:1030F000A3F8089946F61C40C8F2000001F0E4F875
:1031000040F2165000F088FD07994FF22860C8F28F
:10311000000001F091F809994FF22800C8F2070069
:1031200001F08AF8089946F61C60C8F2000001F028
:10313000CBF840F2062000F06FFD4FF4027000F073
:103140006BFD40F20A2000F067FD08994FF238301D
:10315000C8F2070001F070F8089943F23820C8F26D
:10316000000001F0B1F80E2000F056FD122000F032
:1031700053FD102000F050FD142000F04DFD099982
:103180004EF22020C8F2070001F056F8059946F6E5
:103190002000C8F2000001F097F84FF4A36000F09F
:1031A0003BFD1C2000F038FD0C2000F035FD4FF4F5
:1031B0008C7000F031FD40F2023000F02DFD40F245
:1031C000063000F029FD40F21A5000F025FD40F2D3
:1031D0000E6000F021FD08994EF22400C8F20700AD
:1031E00001F02AF8089942F22460C8F2000001F0C8
:1031F0006BF840F20A3000F00FFD09994EF63840A6
:10320000C8F2000001F018F807994FF21870C8F2E0
:10321000000001F011F84EF63870C8F200000521E8
:1032200001F052F840F20E5000F0F6FC09994FF60A
:103230003010C8F2000000F0FFFF4FF23060C8F21B
:1032400000000721069100F0F7FF079947F2304090
:10325000C8F2000001F038F840F2025000F0DCFC47
:1032600009994EF63040C8F2000000F0E5FF0699DB
:103270004EF63010C8F2000000F0DEFF079946F26B
:103280003070C8F2000001F01FF84FF4407000F0F9
:10329000C3FC09994EF62810C8F2000000F0CCFFDC
:1032A00006994FF62810C8F2000000F0C5FF0799F4
:1032B00047F22030C8F2000001F006F8089942F207
:1032C0000C00C8F2000000F0FFFF40F6B400C6F2A8
:1032D000010000F009FF00F087FC099A48F20000A5
:1032E000C4F20D000D21C0F2700101F035F8089B09
:1032F000099848F27012C4F20D02116821F40041DD
:103300001160116821F40001116048F2700CC4F2E0
:103310000D0CDCF8001041F40051CCF8001048F21C
:10332000A001C4F20D01D1F800C02CF4005CC1F87A
:1033300000C0D1F800C04CF4803C2CF4404CC1F8E3
:1033400000C048F2B00CC4F20D0CCCF8003048F2CA
:10335000C003C4F20D031860086842F21F0318434B
:1033600020F483500B900B9840F400200B901068D1
:1033700040F0404010600B980860FFE748F2A00062
:10338000C4F20D000068C00F08B9FFE7F6E748F285
:103390000000C4F20D0000900D21C0F2A001002237
:1033A000049200F0D9FF00F027FC00980D21C0F234
:1033B000E0010122019200F0CFFF019A48F2E00102
:1033C000C4F20D01086862F301000860086840F467
:1033D00000500860086840F40010086000F014FC19
:1033E0000098019A0D21C0F2200100F0B5FF48F2CB
:1033F0002001C4F20D01086840F40050086047F253
:103400001820C8F200000321029100F05DFF04992A
:1034100043F61410C1F2004000F056FF049946F63E
:103420001840C8F2000000F04FFF049942F21C60FF
:10343000C8F2000000F048FF019B049A48F26011B6
:10344000C4F20D01086820F01F0008604CF2600112
:10345000C4F20F01086820F070000860086863F388
:1034600003000860086820F4600008600868122300
:1034700063F314400860086820F4807008600868EE
:1034800020F080000860086820F0807008604CF22E
:103490000000C4F20A000390114601F0A9FA029953
:1034A0000398049A01F0A4FA0398049A062101F003
:1034B0009FFA0398049A082101F09AFA0398049A53
:1034C0000A2101F095FA0398049A114601F010FAC6
:1034D0004CF20401C4F20A01086820F400300860CC
:1034E0004CF21401C4F20A01086820F08050086010
:1034F000086820F00050086040F20001C2F20001AC
:1035000044F20060C2F2C33008600CB080BD00001D
:1035100080B586B040F20000C2F220000590059907
:1035200040F20000C2F22000884203D1FFE70020F1
:10353000029007E0059940F20000C2F22400401A10
:103540000290FFE702980490002003904EF614507A
:10355000CEF2000000688003002803D5FFE701F0E9
:10356000DBFEFFE74EF61450CEF200000068C00309
:10357000002803D5FFE701F08BFEFFE7FFF760FCB3
:103580004EF69C52CEF200020092102010604EF6D1
:10359000A051CEF2000101913F20C1F2000008606D
:1035A0001120C8F2000010603920C0F2103008600D
:1035B0001223C6F20003136008601320C6F2000055
:1035C00010603320C0F203600860142010603B20BC
:1035D000C0F210300860152010602120C0F20330C6
:1035E00008601623C2F20003136008601720C2F2BD
:1035F000200010602320C0F203300860FFE7049829
:103600000399C840022804D3FFE7039801300390D0
:10361000F5E7039800284DD0FFE7059A0499B2FB1F
:10362000F1F000FB112008B9FFE70AE041F64F0076
:10363000C6F2010041F68F01C6F20101A122FFF797
:103640002DF90498039A01219140884201D1FFE7A6
:103650000AE041F66700C6F2010041F68F01C6F2AA
:103660000101A222FFF71AF90398052801D3FFE709
:103670000AE041F68800C6F2010041F68F01C6F269
:103680000101A322FFF70AF90598192161F304004B
:103690004EF69C51CEF2000108600398411E0120B5
:1036A000C0F2083061F345004EF6A051CEF20001A1
:1036B0000860FFE74EF69C51CEF200011A20C4F2DA
:1036C000000008604EF6A051CEF200012B20C0F29F
:1036D000103008600420FFF7CBFB01F035FE01F04D
:1036E000BBFE06B080BD000010B58EB040F20240B7
:1036F00000F09EFA6946002308934B6048F2B82018
:10370000C4F21F00086048F2C800C4F21F0005217F
:1037100004911A4601F034F908986946486048F265
:10372000D420C4F21F00086048F2E400C4F21F0075
:103730000121059148F25442C4F21F02032303936E
:1037400001F01EF9089B69464B6048F2DC20C4F288
:103750001F00086048F2EC00C4F21F0002210D9126
:103760001A4601F00DF9089B0D996A46536048F21C
:10377000E020C4F21F00106048F2F000C4F21F0005
:103780001A4601F0FDF80399059B6A46536048F21A
:10379000EC20C4F21F00106048F2FC00C4F21F00CD
:1037A00048F2CC42C4F21F0201F0EAF80399059BEB
:1037B0006A46536048F2F020C4F21F00106048F2DD
:1037C0000010C4F21F0048F2D042C4F21F0201F000
:1037D000D7F8059B08980D996A46506048F2F42086
:1037E000C4F21F00106048F20410C4F21F0048F237
:1037F0003052C4F21F0201F0C3F8059B08980D99DE
:103800006A46506048F2F820C4F21F00106048F287
:103810000810C4F21F0048F22C52C4F21F0201F03B
:10382000AFF80499089B6A46536048F20030C4F22E
:103830001F00106048F21010C4F21F001A4601F079
:103840009FF8059B08986946486048F20C30C4F21E
:103850001F00086048F21C10C4F21F0048F2944296
:10386000C4F21F02194601F08BF8059B08986946BF
:10387000486048F21030C4F21F00086048F220107F
:10388000C4F21F0048F29842C4F21F02194601F028
:1038900077F80499089B6A46536048F21430C4F2E2
:1038A0001F00106048F22410C4F21F001A4601F0F5
:1038B00067F80499089B6A46536048F21830C4F2CE
:1038C0001F00106048F22810C4F21F001A4601F0D1
:1038D00057F8059B08986946486048F29C30C4F246
:1038E0001F00086048F2AC10C4F21F0048F24C52AE
:1038F000C4F21F02194601F043F8059B0898694677
:10390000486048F2A030C4F21F00086048F2B010CE
:10391000C4F21F0048F24852C4F21F02194601F0D7
:103920002FF80598089B6946486048F2E420C4F2E5
:103930001F000690086048F2F400C4F21F000790D0
:1039400006210B911A4601F01BF805980B990D9B67
:103950006A46506048F2E820C4F21F0009901060E7
:1039600048F2F800C4F21F000A9048F25042C4F234
:103970001F020C9201F004F8069A0798089B0B9915
:10398000EC4641F2B004CCF80440CCF800201A46D2
:1039900000F0CEFFDDF824C00A980B990C9A0D9B1D
:1039A000EE46CEF80440CEF800C000F0C1FF0EB0E5
:1039B00010BD00000000000084B0ADF80E008DF8CE
:1039C0000D10BDF90E00000A0290BDF80E0000F0C7
:1039D0001F0001900298062801D8FFE70BE041F292
:1039E000F270C6F2010041F61B01C6F2010140F27D
:1039F000C132FEF753FF02994CF26800C4F20F0087
:103A000000EB8100009000980068019A032191402A
:103A100088439DF80D10914008430099086004B058
:103A2000704700000000000084B0ADF80E008DF873
:103A30000D10BDF90E00000A0290BDF80E0000F056
:103A40001F0001900298062801D8FFE70BE041F221
:103A5000F270C6F2010041F61B01C6F2010140F20C
:103A6000C132FEF71BFF02994CF26800C4F20F004E
:103A700000EB8100009000980068019A03219140BA
:103A800088439DF80D10914008430099086004B0E8
:103A9000704700000000000084B0ADF80E008DF803
:103AA0000D10BDF90E00000A0290BDF80E0000F0E6
:103AB0001F0001900298062801D8FFE70BE041F2B1
:103AC000F270C6F2010041F61B01C6F2010140F29C
:103AD000C132FEF7E3FE02994CF26800C4F20F0017
:103AE00000EB8100009000980068019A032191404A
:103AF00088439DF80D10914008430099086004B078
:103B0000704700000000000084B0ADF80E008DF892
:103B10000D10BDF90E00000A0290BDF80E0000F075
:103B20001F0001900298062801D8FFE70BE041F240
:103B3000F270C6F2010041F61B01C6F2010140F22B
:103B4000C132FEF7ABFE02994CF26800C4F20F00DE
:103B500000EB8100009000980068019A03219140D9
:103B600088439DF80D10914008430099086004B007
:103B7000704700000000000084B0ADF80E008DF822
:103B80000D10BDF90E00000A0290BDF80E0000F005
:103B90001F0001900298062801D8FFE70BE041F2D0
:103BA000F270C6F2010041F61B01C6F2010140F2BB
:103BB000C132FEF773FE02994CF26800C4F20F00A6
:103BC00000EB8100009000980068019A0321914069
:103BD00088439DF80D10914008430099086004B097
:103BE000704700000000000048F27001C4F20D01AF
:103BF0004FF480500860704748F2E001C4F20D01B4
:103C00004FF480500860704748F22001C4F20D0163
:103C1000002008607047000080B582B0ADF8060053
:103C2000BDF906000021FFF7C7FE02B080BD00000D
:103C300080B582B0ADF80600BDF906000321FFF79C
:103C4000F3FE02B080BD000080B582B0ADF8060082
:103C5000BDF906000321FFF71FFF02B080BD000081
:103C600080B582B0ADF80600BDF906000321FFF76C
:103C70004BFF02B080BD000080B582B0ADF80600F9
:103C8000BDF906000321FFF777FF02B080BD0000F9
:103C900081B00090009840F6C071C0F2400161F31D
:103CA0001F2000680099C1F34C32C1F304218A40FF
:103CB0001040C84001B0704781B00090009840F6B5
:103CC000C071C0F2400161F31F2000680099C1F388
:103CD0004C32C1F304218A401040C84001B0704703
:103CE00081B048F27020C4F20D000068C0060028C0
:103CF00006D5FFE743F20060C0F26E10009006E0C8
:103D000040F6F050C2F2000000680090FFE7009813
:103D100001B070470000000081B048F27020C4F28A
:103D20000D000068C006002806D5FFE743F20060DA
:103D3000C0F26E10009006E040F6F050C2F20000B3
:103D400000680090FFE7009801B070470000000095
:103D500080B584B0039002910398BDF80A106FF308
:103D60001F31405881B20020B0EB913F04D1FFE7F2
:103D7000FFF7D2FF019002E000200190FFE70198D9
:103D800004B080BD0000000080B590B00E9045F6F4
:103D90004010C0F2737009904EF20010C0F2F5505E
:103DA00008904FF28000C0F2FA20079047F64000DA
:103DB000C0F27D1006900E9948F20000C4F20D008A
:103DC00000F026FA18B9FFE700200F9087E10E995E
:103DD00048F20000C4F20D000590FFF7B9FF01465C
:103DE00005980D910E9900F003FA18B1FFE70D98B0
:103DF0000F9074E10E9804900D2835D0FFE70498D9
:103E00000D21C0F21001884271D0FFE704980D2106
:103E1000C0F22001884200F04E81FFE704980D2196
:103E2000C0F2300188422BD0FFE704980D21C0F288
:103E30007001884269D0FFE704980D21C0F2A0010B
:103E4000884200F0C680FFE704980D21C0F2E0012F
:103E5000884200F01C81FFE704981521C0F2E001C0
:103E6000884200F0228134E10D9848F20001C4F24A
:103E70000D01096801F07F01484340080D902BE1D6
:103E80009DED0D0AB8EE400B48F25000C4F20D0053
:103E900090ED001AB8EE411B20EE010B48F26000D5
:103EA000C4F20D0090ED001AB8EE411B80EE010B3C
:103EB0008DED0A0B48F23000C4F20D000068C00717
:103EC00028B1FFE70D98162148430D9005E00D98A5
:103ED00000EB800080000D90FFE79DED0A0BBCEE2B
:103EE000C00B10EE101A0D9808440D90F4E00D98D8
:103EF00048F21001C4F20D0109688A071421002A52
:103F000048BF162148430D90E6E048F27000C4F225
:103F10000D00016801F07F010C919DED0D0AB8EED6
:103F2000400B48F28001C4F20D0191ED001AB8EE89
:103F3000411B20EE010B48F29001C4F20D0191EDFE
:103F4000001AB8EE411B80EE010B8DED0A0B0D99A6
:103F50000C9A9DED0A0BBCEEC00B10EE103A01FB63
:103F600002310D91006800F4C0100146039128B1A0
:103F7000FFE70398B0F5002F04D007E00D98800804
:103F80000D9004E00D9840080D9000E0FFE748F226
:103F90007010C4F20D00006848F20001C0F2800108
:103FA000084001460291B0F5004F0CD0FFE702989F
:103FB00048F20001C0F28001884208D1FFE70D9865
:103FC00080080D9004E00D9840080D9000E0FFE798
:103FD00082E048F2A000C4F20D00016801F07F0108
:103FE0000C919DED0D0AB8EE400B48F2B001C4F201
:103FF0000D0191ED001AB8EE411B20EE010B48F2C5
:10400000C001C4F20D0191ED001AB8EE411B80EE23
:10401000010B8DED0A0B0D990C9A9DED0A0BBCEE70
:10402000C00B10EE103A01FB02310D91006800F454
:10403000C0100146019128B1FFE70198B0F5002FAB
:1040400004D007E00D9880080D9004E00D9840081A
:104050000D9000E0FFE748F27010C4F20D00006818
:1040600000F0404001460091B0F1404F05D0FFE71D
:104070000098B0F1804F04D007E00D9880080D90B3
:1040800004E00D9840080D9000E0FFE724E048F2BE
:10409000E000C4F20D00006800F003000C900C99E1
:1040A00006A850F821000D9016E047F64000C0F237
:1040B0007D100D9010E00D9848F22001C4F20D0122
:1040C00009688A071421002A48BF162148430D9029
:1040D00002E000200D90FFE70D980F90FFE70F988A
:1040E00010B080BD0000000081B0009048F20001D7
:1040F000C4F20D01086820F4E030009A12799203AE
:1041000092B2104400F580300860086843F27F02E4
:104110009043009A126802F07F02104400F50050AC
:104120000860FFE748F20000C4F20D000068C00F0D
:1041300008B9FFE7F6E748F20001C4F20D0108688C
:1041400020F48030086001B07047000000000000DB
:1041500082B08DF807009DF80700C00708B9FFE797
:104160000AE042F6D650C6F2010042F6A251C6F26B
:1041700001019922FEF792FB48F25811C4F20D0199
:104180004FF080400860FFE748F27020C4F20D0055
:104190000068C003002801D4FFE7F5E748F2541196
:1041A000C4F20D014FF480300860FFE748F2501070
:1041B000C4F20D0000680004002801D4FFE7F5E711
:1041C00048F25811C4F20D014FF48030086002B07B
:1041D000704700000000000048F27021C4F20D0199
:1041E000086840F00100086070470000000000000F
:1041F00082B0019000910198BDF802106FF31F3159
:104200004058C0F3004002B07047000000000000BA
:1042100082B0019000910198BDF802106FF31F3138
:104220004058009901F01F01C84000F0010002B0A1
:10423000704700000000000080B584B00390029138
:104240000398800E0190039840F6C072C0F24002BD
:1042500062F31F2000680399C1F34C33C1F3042EAD
:1042600003FA0EFC20EA0C00029B03FA0EF303EAA9
:104270000C03184462F31F2108600198202801D81C
:10428000FFE70BE041F2FD70C6F2010041F61B01B1
:10429000C6F2010140F29F32FEF700FB0198202890
:1042A0000DD0FFE7FFE74CF24800C4F20F000068B2
:1042B0000199C840C00708B1FFE7F4E7FFE704B081
:1042C00080BD00000000000080B584B00390029122
:1042D0000398800E0190039840F6C072C0F240022D
:1042E00062F31F2000680399C1F34C33C1F3042E1D
:1042F00003FA0EFC20EA0C00029B03FA0EF303EA19
:104300000C03184462F31F2108600198202801D88B
:10431000FFE70BE041F2FD70C6F2010041F61B0120
:10432000C6F2010140F27A32FEF7B8FA019820286D
:104330000DD0FFE7FFE74CF24800C4F20F00006821
:104340000199C840C00708B1FFE7F4E7FFE704B0F0
:1043500080BD00000000000083B0029001918DF844
:1043600003209DF80300C00750B1FFE70298BDF895
:1043700006106FF31F3101444FF48030486009E0AC
:104380000298BDF806106FF31F3101444FF48030DE
:104390008860FFE703B0704781B00090009840F656
:1043A000EC51C2F20001086001B07047000000004B
:1043B00081B00090009840F6F051C2F20001086010
:1043C00001B070470000000081B08DF803009DF837
:1043D000030038B9FFE748F27421C4F20D01102040
:1043E000086006E048F27821C4F20D011020086050
:1043F000FFE701B07047000080B582B0ADF8020061
:10440000BDF90200803018B9FFE70120019006E0F5
:10441000BDF9020001F014F900200190FFE70198B6
:1044200002B080BD0000000080B582B0ADF802008F
:10443000BDF90200803018B9FFE70120019006E0C5
:10444000BDF9020001F018F900200190FFE7019882
:1044500002B080BD0000000080B582B0ADF802005F
:10446000BDF90200803018B9FFE70120019006E095
:10447000BDF9020001F018F900200190FFE7019852
:1044800002B080BD0000000080B507F029FF0021C8
:1044900048F20002C4F21B02084603F089FE07F04E
:1044A00047FF80BD0000000080B507F019FF002025
:1044B000102148F20002C4F21B0203F079FE07F05B
:1044C00037FF80BD0000000080B507F009FF202005
:1044D00000214CF20002C4F21B0203F069FE07F057
:1044E00027FF80BD0000000080B507F0F9FE202006
:1044F00010214CF20002C4F21B0203F059FE07F037
:1045000017FF80BD0000000080B507F0E9FE4020E5
:1045100000210022C4F21C0203F04AFE07F008FF4B
:1045200080BD00000000000080B507F0D9FE4020EB
:1045300010210022C4F21C0203F03AFE07F0F8FE3C
:1045400080BD00000000000080B507F0C9FE6020BB
:10455000002144F20002C4F21C0203F029FE07F01D
:10456000E7FE80BD0000000080B507F0B9FE6020C6
:10457000102144F20002C4F21C0203F019FE07F0FD
:10458000D7FE80BD0000000080B507F0A9FE8020A6
:1045900000210022C4F20C0203F00AFE07F0C8FE5C
:1045A00080BD00000000000080B507F099FE80206B
:1045B00010210022C4F20C0203F0FAFD07F0B8FE4D
:1045C00080BD00000000000082B00190002000903B
:1045D000FFE70098052811D8FFE7009940F6D8407A
:1045E000C6F2010050F821000199884201D1FFE78D
:1045F00004E0FFE7009801300090EAE70098052802
:1046000001D8FFE70AE042F65840C6F2010042F640
:104610007B41C6F201013922FEF740F9009802B051
:10462000704700000000000080B584B00390029144
:1046300001920398FFF7C8FF014640F6F040C6F22A
:10464000010030F91100FFF70BFB0299012000FA7D
:1046500001F203994869904348610198007848B98C
:10466000FFE70299012000FA01F20399486890439C
:1046700048600EE003980299019A527800F098F889
:104680000299012000FA01F203994868104348603A
:10469000FFE703980299019A927800F0E1F804B0DC
:1046A00080BD00000000000082B0019000910098E1
:1046B0001F2801D8FFE70AE041F69D00C6F201007D
:1046C00041F6A601C6F20101CD22FEF7E7F80198F6
:1046D00080680099C84000F0010002B070470000F7
:1046E00086B0059004918DF80F20049801900499EC
:1046F000012000FA01F20599C8699043C861049845
:104700000F2804D8FFE705980C30029006E00598C2
:1047100010300290019810380190FFE79DF80F00CB
:1047200001380146009104283CD80099DFE801F0E7
:10473000030D1A27310001984100032000FA01F20D
:1047400002990868904308602DE00298006801997A
:104750004A00032191408843012191400843029976
:10476000086020E00298006801994A000321914006
:1047700088430221914008430299086013E00198A0
:104780004100032000FA01F2029908681043086012
:1047900009E00499012000FA01F20599C869104363
:1047A000C86100E0FFE706B07047000000000000AD
:1047B00084B0039002918DF8072002981F2801D839
:1047C000FFE70AE041F69D00C6F2010042F67B4198
:1047D000C6F201016B22FEF761F89DF8070048B9A7
:1047E000FFE70299012000FA01F20399086890435B
:1047F000086008E00299012000FA01F203990868B4
:1048000010430860FFE704B070470000000000009C
:1048100082B00190009100980199886102B07047C0
:1048200082B001900091009A0199486990434861D3
:1048300002B070470000000082B001900091009A21
:10484000019948691043486102B0704700000000B8
:1048500081B000900098806901B0704700000000AE
:1048600080B584B0039002918DF8072003980299D7
:104870009DF80720FFF734FF04B080BD0000000062
:1048800080B584B0039042F22460C8F20000FFF7C4
:1048900013FAD0B9FFE70D20C0F21000FFF774FA49
:1048A0004AF6AB21CAF6AA21A0FB011080080190AC
:1048B0004EF22400C8F20700FFF7EAF9014601981A
:1048C0000131B0FBF1F002900FE0FFF709FA009020
:1048D0004EF22400C8F20700FFF7DAF9014600980B
:1048E0000131B0FBF1F00290FFE7029804B080BD07
:1048F00083B002908DF807108DF80620029880682A
:104900004FF6FF71CFF600310840009000989DF8F7
:10491000071001F0010140EA81609DF8061040EAAD
:1049200001400299886003B0704700000000000059
:1049300084B0DDF814C0DDF810C00390029101923C
:104940000093049820B1FFE7059804990860FFE7F9
:1049500004B070470000000084B0DDF814C0DDF83A
:1049600010C00390029101920093049820B1FFE7D8
:10497000059804990860FFE704B070470000000044
:1049800084B0DDF814C0DDF810C0039002910192EC
:104990000093029800F00700059901F0010140EA38
:1049A000011003990860019820B1FFE70098019970
:1049B0000860FFE704B0704784B0DDF814C0DDF88C
:1049C00010C00390029101920093029800F007003A
:1049D000059901F0010140EA01100399086001986E
:1049E00020B1FFE7009801990860FFE704B0704725
:1049F00083B002908DF807108DF806209DF807000F
:104A0000042814DBFFE7029840689DF80720032183
:104A10009140884300909DF8060000F003009DF847
:104A200007108840009908430299486013E00298F3
:104A300040689DF8072007219140884300909DF829
:104A4000060000F007009DF8071088400099084311
:104A500002994860FFE703B07047000000000000C3
:104A600080B541F2B810C2F20000026841F2941021
:104A7000C2F20000416844F20000C4F218009047FE
:104A800080BD00000000000080B507F029FC40F662
:104A9000F830C2F200000BF037FE07F049FC80BD91
:104AA00080B541F2B810C2F20000026841F29410E1
:104AB000C2F20000816848F20000C4F2180090477A
:104AC00080BD00000000000080B541F2B810C2F2C5
:104AD0000000026841F29410C2F20000C1684CF27A
:104AE0000000C4F21800904780BD000000000000E4
:104AF00080B541F2B810C2F20000026841F2941091
:104B0000C2F2000001690020C4F21900904780BD84
:104B100080B541F2B810C2F20000026841F2941070
:104B2000C2F20000416944F20000C4F2190090474B
:104B300080BD00000000000080B541F2B810C2F254
:104B40000000026841F29410C2F20000816948F24C
:104B50000000C4F21900904780BD00000000000072
:104B600080B541F2B810C2F20000026841F2941020
:104B7000C2F20000C1694CF20000C4F21900904773
:104B800080BD00000000000080B541F2B810C2F204
:104B90000000026841F29410C2F20000016A002095
:104BA000C4F21A00904780BD80B586B0059004918C
:104BB0000598806A0390039820F44030039004988D
:104BC00000F00301039840EA01400390039805991F
:104BD0008862059840690390039820F00040039094
:104BE000049800F0004103980843039003984FF69F
:104BF000FF71CBF6E0710840039004980021C4F2E5
:104C00001F010140039808430390039820F440409B
:104C10000390049800F440410398084303900398DC
:104C20000599486104980190059800F0A1F80146A3
:104C30000198084204D0FFE740F21A50029002E0C7
:104C400000200290FFE7029806B080BD000000003F
:104C500082B001900091009800F0C00201990869AB
:104C600040EA022008610198806A20F440300099EF
:104C700001F0030140EA012001998862009820F0C8
:104C8000FF000090009A019988691043886102B082
:104C9000704700000000000080B582B001900198CC
:104CA00008B1FFE70BE042F60850C6F2010042F6F9
:104CB000D341C6F2010140F20622FDF7EFFD019853
:104CC000002100911422FDF7F9FE0098019A4FF49B
:104CD000E131116001990871019948710199887158
:104CE0000199C871019908720199487201998872F5
:104CF0000199C872019948730199087301998873E1
:104D00000199C873019908740199487402B080BD73
:104D100082B0019000200090FFE70098082811D889
:104D2000FFE7009940F6FC40C6F2010050F8210070
:104D30000199884201D1FFE704E0FFE700980130C4
:104D40000090EAE70098082801D8FFE70AE042F659
:104D5000AE40C6F2010042F6D341C6F201017A220A
:104D6000FDF79CFD009802B07047000000000000B5
:104D700082B001900198406900900198806A00F427
:104D80004301009840EA11400090009802B070473B
:104D900080B58CB00A9009910892099808B1FFE794
:104DA0000AE042F60850C6F2010042F6D341C6F2CC
:104DB0000101EE22FDF772FD0998006808B1FFE7D6
:104DC0000AE042F68D50C6F2010042F6D341C6F227
:104DD0000101EF22FDF762FD0998007A042801DC49
:104DE000FFE70AE042F64E50C6F2010042F6D34118
:104DF000C6F20101F122FDF751FD0998407A04281D
:104E000001DCFFE70AE042F60F50C6F2010042F66D
:104E1000D341C6F20101F222FDF740FD0998006876
:104E2000019000200590ADF81A0004200490FFE7DF
:104E30000498202854D8FFE7089809990968049A2B
:104E40005143B0FBF1F0ADF81800BDF8180020B9DF
:104E5000FFE70120ADF81800FFE708980499BDF8B6
:104E600018205143B0FBF1F00290029809990968AB
:104E7000401A0390039809990968089A049BBDF8A1
:104E800018C00CF1010C03FB0CF3B2FBF3F2891A0E
:104E9000884212D9FFE7099800680899049ABDF87A
:104EA000183001335A43B1FBF2F1401A0390BDF8B8
:104EB00018000130ADF81800FFE703980199884207
:104EC00009D8FFE70398019004980590BDF81800F1
:104ED000ADF81A00FFE7FFE7049801300490A7E758
:104EE00001980999096848F21F52C5F2EB12A1FB1B
:104EF0000221490901EB4101884204D9FFE740F250
:104F000021500B90F3E00A98FFF702FF0090009900
:104F100040F62050C6F2010030F91100FEF7ACFE59
:104F20000A9800F029F90A98006907900598042862
:104F300009D3FFE70598072805D8FFE7079840F44D
:104F400000300790FFE7079820F0F8500790059988
:104F50004FF07F4000EB016000F0F85107980843E4
:104F60000790079841F6FF71884307900798BDF8AE
:104F70001A106FF35F3108430A9908610A990869AA
:104F800020F0005008610A98806940F21771884348
:104F90000790099A1079917BD27B02F0070240EAD0
:104FA000022001F0010140EA8101079808430790BF
:104FB0000998407901280FD1FFE70998007928B1B5
:104FC000FFE7079820F40060079004E0079840F49A
:104FD00000600790FFE709E00998007928B1FFE732
:104FE000079840F010000790FFE7FFE707980A993D
:104FF00088610A98006920F4005007900798099981
:10500000C97901F0010140EA41300A990861099922
:10501000087A497A40EA01400A99C8620A99886A7E
:1050200040F0880088620A99886A40F440408862AB
:105030000020C4F21F000790079840F0004007903E
:10504000079840F4404007900998027B407B20215C
:1050500001EA421260F304120A99486A1043486256
:105060000998807AC00730B1FFE70A99486A40F092
:1050700008004862FFE70998C07AC00730B1FFE72F
:105080000A99486A40F001004862FFE70998807970
:10509000C00728B1FFE7079840F00050079004E0F0
:1050A000079820F000500790FFE7079A0A9948698F
:1050B000104348610A98806907900998007CC007EE
:1050C00028B1FFE7079840F400200790FFE7099810
:1050D000407CC00728B1FFE7079840F48020079084
:1050E000FFE707980A99886100200B90FFE70B986B
:1050F0000CB080BD0000000086B004900498806968
:10510000039001209DF80D1009070029019019D482
:10511000FFE700209DF80D100907002900900ED42C
:10512000FFE700209DF80C10C9060029009006D466
:10513000FFE79DF80C00C0F340000090FFE70098E7
:105140000190FFE7019800F001008DF80B009DF839
:105150000B00C00738B1FFE70498C06900F07F007A
:105160008DF8170004E00498C0698DF81700FFE778
:105170009DF8170006B0704781B0009000998868CC
:1051800040F0020088600099886820F00200886082
:1051900001B070470000000082B001908DF803104C
:1051A0009DF803000199C86102B07047000000003B
:1051B00088B0079006910592079800F007000490C8
:1051C0000498C0F10700052803D3FFE704200190ED
:1051D00004E00498C0F107000190FFE701980390F4
:1051E00004980430062803D8FFE70020009003E06D
:1051F000049803380090FFE70098029006980399FE
:10520000012202FA01F101390840029B98400599F8
:105210009A40013A1140084308B07047000000006E
:1052200088B0079006910592079800F00700049057
:105230000498C0F10700052803D3FFE7042001907C
:1052400004E00498C0F107000190FFE70198039083
:1052500004980430062803D8FFE70020009003E0FC
:10526000049803380090FFE700980290069803998D
:10527000012202FA01F101390840029B9840059988
:105280009A40013A1140084308B0704700000000FE
:1052900083B04EF68451CEF2000100200860BFF3C7
:1052A0004F8F4EF61451CEF20001086820F4803082
:1052B0000860BFF34F8F4EF68050CEF200000068BA
:1052C00002900298C0F34E300190FFE70298C0F3BD
:1052D000C9000090FFE701990098800761F34D1025
:1052E0004EF67471CEF200010860FFE70098411E8F
:1052F00000910028EFD1FFE7FFE70198411E0191DF
:105300000028E3D1FFE7BFF34F8FBFF36F8F03B0E8
:105310007047000000000000BFF34F8FBFF36F8F96
:105320004EF61451CEF20001086820F400300860F7
:105330004EF65071CEF2000100200860BFF34F8F8F
:10534000BFF36F8F7047000083B04EF68451CEF2EA
:10535000000100200860BFF34F8F4EF68050CEF260
:105360000000006802900298C0F34E300190FFE701
:105370000298C0F3C9000090FFE7019900988007E8
:1053800061F34D104EF66071CEF200010860FFE748
:105390000098411E00910028EFD1FFE7FFE7019838
:1053A000411E01910028E3D1FFE7BFF34F8F4EF676
:1053B0001451CEF20001086840F480300860BFF359
:1053C0004F8FBFF36F8F03B07047000000000000E5
:1053D00083B04EF68451CEF2000100200860BFF386
:1053E0004F8F4EF68050CEF2000000680290029877
:1053F000C0F34E300190FFE70298C0F3C90000905F
:10540000FFE701990098800761F34D104EF6607137
:10541000CEF200010860FFE70098411E00910028CD
:10542000EFD1FFE7FFE70198411E01910028E3D18A
:10543000FFE7BFF34F8F4EF61451CEF2000108681C
:1054400040F480300860BFF34F8FBFF36F8F03B01D
:105450007047000000000000BFF34F8FBFF36F8F55
:105460004EF65071CEF2000100200860BFF34F8F5E
:10547000BFF36F8F4EF61451CEF20001086840F46E
:1054800000300860BFF34F8FBFF36F8F704700008D
:10549000BFF34F8FBFF36F8F4EF65071CEF2000106
:1054A00000200860BFF34F8FBFF36F8F4EF614518B
:1054B000CEF20001086840F400300860BFF34F8F5F
:1054C000BFF36F8F7047000080B582B000900098E6
:1054D0000138B0F1807F03D3FFE70120019019E08C
:1054E000009801384EF21401CEF2000108604FF02E
:1054F000FF300F2100F000F94EF21801CEF200014A
:10550000002008604EF21002CEF200020721116066
:105510000190FFE7019802B080BD0000000000008C
:1055200080B506F0DDFE0AF007F906F001FF80BD48
:1055300080B54EF68851CEF20001086840F4700044
:10554000086048F20801C4F20B01088820F001004D
:1055500008800821C4F20D01088820F001000880AD
:1055600048F20000C4F20B0000884007002809D56B
:10557000FFE748F20001C4F20B01088820F00400A4
:105580000880FFE70020C4F20D00008840070028D3
:1055900008D5FFE70021C4F20D01088820F00400BF
:1055A0000880FFE74CF20401C4F20B014CF22050DA
:1055B000CDF6281008604CF20801C4F20B014FF63A
:1055C000FF7008604CF20001C4F20B01086840F063
:1055D000200020F0800008604EF21000CEF20000A3
:1055E0000068C00748B1FFE74EF21001CEF200019B
:1055F000086820F001000860FFE74EF61450CEF274
:105600000000006800F40030B0F5003F03D0FFE771
:10561000FFF73EFFFFE74EF61450CEF200000068A1
:1056200000F48030B0F5803F03D0FFE7FFF7D0FEF5
:10563000FFE700F001F880BD7047000000000000A7
:1056400081B0ADF80200BDF90200002812D4FFE7D6
:10565000BDF9021001F01F02012090404A094EF2EC
:105660008011CEF2000141F82200BFF34F8FBFF34B
:105670006F8FFFE701B0704781B0ADF80200BDF950
:10568000020000280ED4FFE7BDF9021001F01F024E
:10569000012090404A094EF20011CEF2000141F87B
:1056A0002200FFE701B0704781B0ADF80200BDF9FC
:1056B000020000280ED4FFE7BDF9021001F01F021E
:1056C000012090404A094EF20011CEF2000141F84B
:1056D0002200FFE701B070474EF60C50CEF20000FA
:1056E0000068C0F3022070474EF60C50CEF2000066
:1056F0000068C0F30220704782B0ADF80600009148
:10570000BDF9060000280AD4FFE700980001BDF9A2
:1057100006104EF20042CEF2000288540BE00098D0
:105720000001BDF8061001F00F014EF61452CEF242
:1057300000028854FFE702B070470000000000003C
:1057400082B0ADF806000091BDF9060000280AD429
:10575000FFE700980001BDF906104EF20042CEF2BC
:10576000000288540BE000980001BDF8061001F01B
:105770000F014EF61452CEF200028854FFE702B039
:10578000704700000000000082B0ADF806000091F4
:10579000BDF9060000280AD4FFE700980001BDF912
:1057A00006104EF20042CEF2000288540BE0009840
:1057B0000001BDF8061001F00F014EF61452CEF2B2
:1057C00000028854FFE702B07047000000000000AC
:1057D00083B00290029800F0070000904EF60C5142
:1057E000CEF200010868019001984FF6FF021040C8
:1057F00001900198009A40EA02200022C0F2FA5279
:10580000104301900198086003B070470000000049
:1058100081B000900098002804D090FAA0F0B0FA6F
:1058200080F0401C0090009801B07047000000001C
:1058300080B582B0019009F017FD00900098E0B1AA
:10584000FFE7FFE740F63B50C6F2010006F08CFD93
:105850000099019A40F64C50C6F2010006F084FD12
:1058600040F63550C6F2010006F07EFDFFE70098D5
:105870000121002209F0CCF9FFE702B080BD000051
:1058800080B582B009F0F0FC50B1FFE740F61C5043
:10589000C2F200004FF0FF3107F0E2FC019002E09D
:1058A00000200190FFE7019802B080BD00000000D9
:1058B00080B540F61C50C2F2000042F2F301C6F27D
:1058C0000101012207F08CFB80BD000000000000F8
:1058D00080B582B00190019868B1FFE742F2D450E0
:1058E000C6F2010042F23F61C6F2010140F2BF621E
:1058F00004F04AFEFFE709F0B7FC38B1FFE740F6D5
:105900001C50C2F2000007F09FFBFFE702B080BD11
:1059100080B584B00390039800681438029002990F
:10592000002001908863029809F03EFC019804B0C1
:1059300080BD00000000000080B58AB0089007918B
:105940008DF81B200593FCF7D5FD0490079890F87F
:105950003C0000F0040004280FD0FFE707980599E9
:1059600009F006FE0390039830B1FFE70498FCF7B6
:10597000C5FD039809904FE0FFE79DF81B00014625
:10598000009120B1FFE70098012806D032E0089886
:105990000799143106F0E4FD38E008980068029099
:1059A000FFE702980899884218D0FFE70298143858
:1059B0000190079890F83D00019991F83D108842B8
:1059C00007DAFFE7019814300799143106F0C8FD93
:1059D00004E0FFE7029800680290E2E70298089965
:1059E000884206D1FFE708980799143106F0B8FD00
:1059F000FFE70BE041F2D110C6F2010042F29E2116
:105A0000C6F20101BA2204F0BFFDFFE70498FCF7DB
:105A100075FD00200990FFE709980AB080BD0000DD
:105A200080B582B001900198143006F0EDFC0020A2
:105A300002B080BD0000000080B588B007900691DC
:105A40000798069906F00CFF05900598C0BBFFE784
:105A5000072007F0A1FD0190019868B9FFE742F225
:105A60001370C6F2010042F23F71C6F2010140F22A
:105A7000153204F089FDFFE7019840680390FFE7C5
:105A8000039801990431884219D0FFE703980C3834
:105A900004900498029007980299884201D1FFE788
:105AA00009E00298069906F0DBFE0590059808B11A
:105AB000FFE704E0FFE7039800680390E0E7FFE7F3
:105AC000059808B080BD000080B582B001900198B3
:105AD00006F0DEFF02B080BD80B594B01290119147
:105AE000109200200E90129868B9FFE741F65920F5
:105AF000C6F2010041F64F21C6F201014FF489724E
:105B000004F042FDFFE7109868B9FFE741F65D2019
:105B1000C6F2010041F64F21C6F2010140F2131214
:105B200004F032FDFFE7FFE70E99119A0020914241
:105B3000029013D2FFE712980E99415600202029B7
:105B4000019008D0FFE712980E994056093818BF07
:105B500001200190FFE701980290FFE70298C0073B
:105B600020B1FFE70E9801300E90DDE70E9820B9C6
:105B7000FFE76FF0FE00139027E012980E9904F0F3
:105B80001FF80D900D9820B9FFE76FF0FE001390FD
:105B90001BE003A800900021282207F041F9009A99
:105BA0001298119904F0D4F90F900F9820B9FFE7DB
:105BB0006FF0FE00139008E00D9A0F9803A990472C
:105BC0001099086000201390FFE7139814B080BD6F
:105BD00080B582B001900198143006F00DFD50B9E7
:105BE000FFE70198406914380090009890F83D0054
:105BF0000199487703E00199FF204877FFE7019872
:105C0000407F02B080BD000080B582B0019000915D
:105C10000198022803DCFFE700F0FAF841E0009861
:105C2000416841F21350C6F2010008F08DFE28B918
:105C3000FFE70198009900F03FF832E000984168D2
:105C400041F6C610C6F2010008F07EFE28B9FFE753
:105C50000198009900F05CF822E00098416842F653
:105C6000F200C6F2010008F06FFE28B9FFE70198C4
:105C7000009900F011F912E00098416841F2F740F4
:105C8000C6F2010008F060FE28B9FFE7019800990C
:105C900000F04EF902E000F0BBF802E0FFE7FFE79A
:105CA000FFE702B080BD000080B582B0019001988E
:105CB00007F062FD02B080BD80B584B00390029110
:105CC0000398022803DCFFE700F0A2F81EE0029828
:105CD0008068FFF7E9FF01900198B0F1FF3F0BDC0E
:105CE000FFE70298816841F2AE20C6F2010006F09B
:105CF0003BFB00F08DF809E002988168019A41F2BF
:105D00000230C6F2010006F02FFBFFE704B080BDB1
:105D100080B584B0039002910398032803DCFFE769
:105D200000F076F86FE00298806803F0EDFFB0B9FC
:105D3000FFE702988068FFF7B7FF01900198B0F184
:105D4000FF3F0BDCFFE70298816841F2AE20C6F20C
:105D5000010006F009FB00F05BF854E005E0029852
:105D60008068FCF755FD0190FFE70298C16841F299
:105D70004750C6F2010008F0E7FD18B9FFE7002020
:105D800000903AE00298C16841F24150C6F2010029
:105D900008F0DAFD18B9FFE7012000902CE0029826
:105DA000C16841F22950C6F2010008F0CDFD18B9D2
:105DB000FFE7022000901EE00298C16841F21A50ED
:105DC000C6F2010008F0C0FD18B9FFE703200090FB
:105DD00010E00298C16841F2DA40C6F2010008F012
:105DE000B3FD18B9FFE70420009002E000F010F8BE
:105DF00009E0FFE7FFE7FFE7FFE701989DF80010E4
:105E000007F0EAFCFFE704B080BD000000000000DE
:105E100080B541F2C720C6F2010006F0A5FA41F2B2
:105E2000CB30C6F2010006F09FFA41F20B30C6F209
:105E3000010006F099FA41F25F40C6F2010006F057
:105E400093FA41F29C30C6F2010006F08DFA41F25D
:105E5000DA20C6F2010006F087FA41F2FC30C6F201
:105E6000010006F081FA41F26E30C6F2010006F040
:105E70007BFA41F24040C6F2010006F075FA41F2A9
:105E80009D40C6F2010006F06FFA41F6B760C6F217
:105E9000010007F071FC80BD80B584B003900291D1
:105EA0000398022803DCFFE7FFF7B2FF3BE002980C
:105EB000806803F029FFB0B9FFE702988068FFF718
:105EC000F3FE01900198B0F1FF3F0BDCFFE7029871
:105ED000816841F2AE20C6F2010006F045FAFFF7F4
:105EE00097FF20E005E002988068FCF791FC0190A4
:105EF000FFE7019807F094FC8DF803009DF803007C
:105F0000012808D1FFE7019941F25E30C6F2010095
:105F100006F02AFA07E0019941F28E40C6F201002C
:105F200006F022FAFFE704B080BD00000000000088
:105F300080B584B0039002910398032803DCFFE747
:105F4000FFF766FF5BE00298806803F0DDFEB0B902
:105F5000FFE702988068FFF7A7FE01900198B0F173
:105F6000FF3F0BDCFFE70298816841F2AE20C6F2EA
:105F7000010006F0F9F9FFF74BFF40E005E0029859
:105F80008068FCF745FC0190FFE70298C16841F288
:105F90000150C6F2010008F0D7FC50B1FFE70298AB
:105FA000C16841F21750C6F2010008F0CDFC20B9DB
:105FB000FFE701208DF803001BE00298C16841F261
:105FC0004E50C6F2010008F0BFFC50B1FFE7029846
:105FD000C16841F2FD40C6F2010008F0B5FC20B9ED
:105FE000FFE700208DF8030002E0FFF711FF06E055
:105FF000FFE701989DF8031007F032FCFFE704B0BB
:1060000080BD00000000000080B586B004900391C0
:10601000029204980090009860B9FFE741F2A8400E
:10602000C6F2010041F20651C6F20101372204F026
:10603000ABFAFFE702980190019820B9FFE76FF0F3
:10604000FE0005900AE00098006C03680498019A2D
:1060500011681279984700200590FFE7059806B06F
:1060600080BD00000000000080B588B0069005915A
:106070000492039306980190019860B9FFE741F2FA
:10608000A840C6F2010041F2D041C6F20101162239
:1060900004F07AFAFFE704980290029820B1FFE733
:1060A0000398082803D0FFE7002007900BE0019831
:1060B000006C8268069802990968904702990871F5
:1060C00003980790FFE7079808B080BD0000000024
:1060D00080B588B0069005910492039306980190CC
:1060E000019860B9FFE741F2A840C6F2010041F211
:1060F000F241C6F20101262204F046FAFFE70498B5
:106100000290029820B1FFE70398082803D0FFE728
:10611000002007900AE00198006C43680698029AF4
:1061200011681279984703980790FFE7079808B01D
:1061300080BD00000000000080B590B00E900D9171
:106140000C92FFE705F094FE089004F0A9FCA8B1BA
:10615000FFE741F2EB00C6F2010042F2BD21C6F2B8
:106160000101049106F000F9049941F2D110C6F240
:1061700001004FF4956204F007FAFFE70898012840
:1061800015D1FFE741F2C600C6F2010042F2BD217F
:10619000C6F20101039106F0E7F8039941F2D1102C
:1061A000C6F201004FF4956204F0EEF9FFE7FFE755
:1061B00009F05AF8A8B9FFE741F21510C6F201003C
:1061C00042F2BD21C6F20101029106F0CDF802991A
:1061D00041F2D110C6F201004FF4956204F0D4F9F7
:1061E000FFE7FFE706F098F8A8B1FFE741F29F004C
:1061F000C6F2010042F2BD21C6F20101019106F092
:10620000B3F8019941F2D110C6F201004FF4956242
:1062100004F0BAF9FFE7FFE7FFE7FFE70E9868B978
:10622000FFE742F26720C6F2010042F2BD21C6F24A
:10623000010140F2AB4204F0A7F9FFE70E9807F026
:10624000DFF903280DD0FFE742F24B30C6F2010020
:1062500042F2BD21C6F2010140F2AC4204F094F9D1
:10626000FFE709F001F80A900E982C3008F04CFB7B
:106270000B90FFE741F25C00C2F20000006840B101
:10628000FFE741F25C00C2F2000001680E98884707
:10629000FFE7FFE70A99002088630E98006A0A99D1
:1062A000884214D1FFE70E98807FFE2805DCFFE7C7
:1062B0000E99887F0130887708E0FFE70B98FCF79C
:1062C0001DF9FFE76FF022000F9008E1EEE00E9855
:1062D000006A28BBFFE70A980E9908620E99FF2012
:1062E00048770E99012088770E98007FFF2810D0FC
:1062F000FFE70E99087F096A91F83D10884207DA96
:10630000FFE70E99086A097F0C9A00F0EDFEFFE79F
:10631000FFE70A9844300E99243106F0A9F8C4E04A
:106320000D9868B9FFE70A996FF074008863FFE77A
:106330000B98FCF7E3F8FFE76FF074000F90CEE0E6
:106340000A9890F83D008DF81F000E9A02F1140093
:106350000A99527A0C9BFFF7EFFA0990099840B11D
:10636000FFE7FFE70B98FCF7C9F8FFE709980F90E4
:10637000B5E00E980A99C8649DF81F000E99497FF0
:10638000884215DAFFE79DF81F000E9948770E99AD
:10639000487F096A91F83D10884208DAFFE70E98B5
:1063A000006A9DF81F10022200F09EFEFFE7FFE743
:1063B0000D9801280BDBFFE70A98603000210DAA39
:1063C00009F0BAFA0A98603009F0E6FBFFE7FFE748
:1063D0000B98FCF793F8FFE707F066FA0E982C305D
:1063E00008F092FA0B900A98806B08B9FFE75AE020
:1063F000002006900E98006A68B1FFE70E98006AC8
:1064000090F83D000A9991F83D10884203D1FFE7CA
:1064100001200690FFE70E98143006F0EDF850B911
:10642000FFE70E98406914380590059890F83D00F4
:106430000E99487703E00E99FF204877FFE706980A
:10644000C0B1FFE70E98006A00F012FD8DF81F0042
:106450009DF81F000E99096A91F83D10884208D0F6
:10646000FFE70E98006A9DF81F10022200F03CFE24
:10647000FFE7FFE7FFE70B98FCF740F8FFE70A9913
:106480000020C8640A98806B09900998012804DBF1
:10649000FFE709984042009002E009980090FFE76A
:1064A00000980F901BE0FFE7FFE7FFE7FFE70B987F
:1064B000FCF724F8FFE7FFE741F25800C2F20000C2
:1064C000006840B1FFE741F25800C2F200000168E5
:1064D0000E988847FFE7FFE700200F90FFE70F982F
:1064E00010B080BD0000000080B58CB00A9009910A
:1064F00008920A9868B9FFE742F25820C6F20100F4
:1065000042F2B021C6F2010140F2012204F03CF84F
:10651000FFE70A9807F074F802280DD0FFE742F26F
:10652000CC20C6F2010042F2B021C6F2010140F2D5
:10653000022204F029F8FFE7FFE741F25C00C2F213
:106540000000006840B1FFE741F25C00C2F20000C9
:1065500001680A988847FFE7FFE7FFE70A98808B02
:10656000002870D1FFE7099800286CD0FFE705F0FC
:106570007FFC049004F094FAA8B1FFE741F2EB002D
:10658000C6F2010042F2B021C6F20101039105F00A
:10659000EBFE039941F2D110C6F2010040F207224E
:1065A00003F0F2FFFFE70498012815D1FFE741F25D
:1065B000C600C6F2010042F2B021C6F2010102910A
:1065C00005F0D2FE029941F2D110C6F2010040F26C
:1065D000072203F0D9FFFFE7FFE708F045FEA8B95F
:1065E000FFE741F21510C6F2010042F2B021C6F2F7
:1065F0000101019105F0B8FE019941F2D110C6F2F6
:10660000010040F2072203F0BFFFFFE7FFE705F0BC
:1066100083FEA8B1FFE741F29F00C6F2010042F2FB
:10662000B021C6F20101009105F09EFE009941F2F1
:10663000D110C6F2010040F2072203F0A5FFFFE7E8
:10664000FFE7FFE7FFE7FFE70A98203008F05CF973
:1066500007900A98808B01280ADBFFE70A99888B4C
:1066600001388883FFE70798FBF748FFFFE746E01C
:10667000099848B9FFE7FFE70798FBF73FFFFFE7F7
:106680006FF074000B904EE008F0EEFD0690069956
:106690006FF00A0088630A9A02F114000699527A90
:1066A000089BFFF749F90590059840B1FFE7FFE720
:1066B0000798FBF723FFFFE705980B9033E0099855
:1066C00001280BDBFFE706986030002109AA09F0DA
:1066D00033F90698603009F05FFAFFE7FFE70798A3
:1066E000FBF70CFFFFE707F0DFF80698806B20B19F
:1066F000FFE70698806B0B9015E0FFE7FFE7FFE7E9
:1067000041F25800C2F20000006840B1FFE741F2D8
:106710005800C2F2000001680A988847FFE7FFE7C7
:1067200000200B90FFE70B980CB080BD000000002C
:1067300080B584B0039041F27010C2F2000000688E
:10674000FFF766F801380190019941F27000C2F23A
:10675000000050F831001438029001980399086045
:10676000029804B080BD000080B582B0019001980D
:1067700060B9FFE742F24620C6F2010042F6F70197
:10678000C6F20101632203F0FFFEFFE70198006BF0
:10679000007823280ED1FFE70199486A096B8842E7
:1067A00008D9FFE7019A506A116B526B1144884275
:1067B00010D9FFE7019942F6A900C6F2010005F0E1
:1067C000D3FDFBF797FE0090FFE7009808B1FFE7C5
:1067D000FBE70FE00199486A096B2031884208D82D
:1067E000FFE7019942F67400C6F2010005F0BCFD16
:1067F000FFE7FFE702B080BD80B540F64C50C2F223
:1068000000000068D8B9FFE7FFE741F25250C6F236
:10681000010005F0A9FD41F2B050C6F2010005F0FB
:10682000A3FD40F63550C6F2010005F09DFDFFE7DF
:1068300040F64C51C2F2000101200860FFE780BD24
:1068400080B58AB0089007910692089818B1FFE7C2
:10685000079868B9FFE741F26150C6F2010041F2C2
:10686000A571C6F2010140F2F71203F08DFEFFE7B9
:106870000898543008F028F80590089890F84B10C4
:10688000B0F8490040EA01408008000400284DD1DA
:10689000FFE7002004900898C06C0390039868B943
:1068A000FFE741F21360C6F2010041F2A571C6F2A2
:1068B000010140F2012203F067FEFFE70398006840
:1068C00001281ED0FFE70399012008600898006C9A
:1068D000006968B9FFE741F29560C6F2010041F234
:1068E000A571C6F2010140F2062203F04DFEFFE75A
:1068F0000898016CD1F810C00799069A0123E04767
:1069000003E06FF016000490FFE7FFE70598FBF740
:10691000F5FDFFE7049818B9FFE70698099078E0BD
:10692000049807F055FE0020099072E00898C06CAA
:10693000029000200190089805F00AF80090029853
:1069400068B9FFE741F26F60C6F2010041F2A5713C
:10695000C6F2010140F2162203F016FEFFE7069888
:106960000099884203DAFFE70698019002E0009858
:106970000190FFE70298C08801990844089991F8AE
:106980004B20B1F8491041EA0241C1F38F0188421E
:1069900009D2FFE70798029A1168D2881144019A38
:1069A00005F0EEFE29E00798029A1168D388194491
:1069B000089A92F84BC0B2F8492042EA0C42C2F35E
:1069C0008F02D21A05F0DCFE0798089991F84B2047
:1069D000B1F8491041EA02429108C2F38F0310FA5C
:1069E00081F00299B1F806C0A0EB0C000968019A89
:1069F0006244D21A05F0C4FEFFE70898019904F03A
:106A0000AFFFFFE70598FBF779FDFFE701980990D5
:106A1000FFE709980AB080BD80B588B0069005915F
:106A200004920698006D0190019804300599049A2B
:106A30004FF0FF3304F038FB0290029820BBFFE7D1
:106A40000698543007F040FF039001980068012831
:106A500011D0FFE7019901200860FFE70398FBF7D9
:106A60004DFDFFE70698016CD1F810C00599049A16
:106A70000223E04705E0FFE70398FBF73FFDFFE750
:106A8000FFE70498079005E0029807F0A1FD0020B9
:106A90000790FFE7079808B080BD000000000000E5
:106AA00080B584B002900298C06C0190019868B9DA
:106AB000FFE741F26F60C6F2010041F20971C6F2D0
:106AC000010140F2891203F05FFDFFE70199888818
:106AD000C988884215D1FFE70198806818B9FFE797
:106AE000002000900AE0029890F84B10B0F849009E
:106AF00040EA0140C0F38F000090FFE70098039048
:106B00001BE001998888C988884206DDFFE7019962
:106B10008888C988401A03900FE0029890F84B10BB
:106B2000B0F8490040EA014081080198C288808895
:106B3000801A10FA81F00390FFE7039804B080BD3B
:106B400080B588B0079006910592079868B9FFE76D
:106B500041F25D60C6F2010041F2C471C6F201016A
:106B60004FF4937203F010FDFFE705980490079827
:106B7000C06C0390039868B9FFE741F26F60C6F2FA
:106B8000010041F2C471C6F201014FF4957203F0A5
:106B9000FBFCFFE7FFE70598002848D0FFE70798D0
:106BA000543007F091FE01900399C8888988884283
:106BB0000AD1FFE70398806830B9FFE7FFE7019843
:106BC000FBF79CFCFFE732E003990868C988405C4A
:106BD00002900399C8880130C8800398C08807993B
:106BE00091F84B20B1F8491041EA0241C1F38F01FD
:106BF000884204DBFFE703990020C880FFE7039881
:106C00008068012804D1FFE7039900208860FFE72E
:106C1000FFE70198FBF772FCFFE7029806990870FE
:106C2000069801300690059801380590B3E704985E
:106C30000599401A08B080BD80B586B005900491D2
:106C40000392059868B9FFE741F25D60C6F2010062
:106C500041F2E371C6F201014FF4AB7203F094FC10
:106C6000FFE7039802900598006D0190019868B9BC
:106C7000FFE741F2BA60C6F2010041F2E371C6F2E9
:106C800001014FF4AD7203F07FFCFFE7FFE70398CB
:106C900090B3FFE7049800780A2815D1FFE705981C
:106CA000008B400600280FD5FFE70598016C8A6825
:106CB0000D219047013030B9FFE701984FF0FF31C7
:106CC00003F07AFDE3E7FFE7FFE70598016C8A68C8
:106CD000049991F900109047013030B9FFE701980D
:106CE0004FF0FF3103F068FDEFE7049801300490A6
:106CF000039801380390CAE702980399401A06B036
:106D000080BD00000000000080B586B005900491B1
:106D10000392059860B9FFE741F25D60C6F2010099
:106D200041F2B471C6F20101F02203F02DFCFFE73D
:106D300003980190FFE7039800B3FFE70598016C03
:106D4000C968884702900298013008B9FFE715E04A
:106D5000029804990870049801300490039801384F
:106D600003900598008B4006002806D5FFE702989F
:106D70000A2801D1FFE701E0FFE7DCE7019803996A
:106D8000401A06B080BD000080B584B00390029127
:106D90000192039868B9FFE741F25D60C6F2010015
:106DA00041F2D371C6F2010140F2071203F0ECFB8D
:106DB000FFE701980090FFE70198F8B1FFE702981C
:106DC00000780A280CD1FFE70398008B40060028C2
:106DD00006D5FFE70398016C8A680D219047FFE70D
:106DE0000398016C8A68029991F900109047029803
:106DF00001300290019801380190DDE70098019977
:106E0000401A04B080BD000080B582B001900198A6
:106E1000FEF70EFDFFE7FEE780B582B008F024FA2A
:106E20000190FFE701989030012107F069FCFFE72E
:106E3000019807F0E5FF0198943007F075FD009088
:106E40000198603008F000FEFFE70098FBF756FB62
:106E5000FFE7FFE701989030012107F00DFDFFE704
:106E60000199012081F83C0006F01EFD02B080BDB2
:106E700085B00490002003900290049890F83E00A2
:106E80008DF807000498406C0390FFE7039804997D
:106E9000443188422AD0FFE70398243802900298B0
:106EA000407F8DF806009DF806000299097F884210
:106EB00004DAFFE79DF80600009003E00298007FE7
:106EC0000090FFE700988DF806009DF807009DF8F8
:106ED0000610884205DDFFE79DF806008DF80700E3
:106EE000FFE7FFE7039800680390CFE79DF80700EE
:106EF00005B070470000000080B588B084460D984A
:106F00000C98DDF82CE0DDF828E0CDF81CC00691E7
:106F1000059204938DF80F000798143005F084FA59
:106F200007981C3005F080FA059807998862049844
:106F30000799C8620A98079908630B9807994863EC
:106F40000799086B4A6B232105F06AFF079B986A33
:106F5000D96A1A6B5B6B1A44043A46F61963C6F297
:106F6000000305F039F9079948629DF80F002028C1
:106F70000CDBFFE742F62320C6F2010042F628317F
:106F8000C6F20101BF2203F0FFFAFFE79DF80F00F0
:106F9000079981F83E009DF80F00079981F83D00A0
:106FA00007990020029008640798443005F03CFAE5
:106FB00002980799C86407990865079981F85400F1
:106FC000079858300D9907F017FC07985C300D9919
:106FD00007F012FC029907988163079880F83C102B
:106FE0000798C0F88C100798C0F89810079B03F119
:106FF00060006A465160116047F24102C6F2000229
:10700000194608F075FD02990798903007F0F4FBD7
:10701000FFE7FFE7FFE741F26C00C2F20000006803
:1070200040B1FFE741F26C00C2F20000016807982E
:107030008847FFE7FFE7002008B080BD00000000A0
:1070400080B584B0039003980290029860B9FFE77E
:1070500042F24620C6F2010042F63531C6F2010185
:10706000832203F091FAFFE7029890F83C0000F0C9
:10707000040004280CD0FFE742F69310C6F201008A
:1070800042F63531C6F20101842203F07DFAFFE7B2
:10709000029806F0B5FA01280CD0FFE742F6452029
:1070A000C6F2010042F63531C6F20101852203F035
:1070B0006BFAFFE70298943007F036FC01900299D2
:1070C0006FF0740088630298143005F011FBFFE73D
:1070D0000198FBF713FAFFE7029806F0D9FC06F0D7
:1070E000E3FB04B080BD000080B588B007908DF848
:1070F0001B1005926FF0FE0004900020039007988B
:1071000002210DF11B0207F083FD0490FFE70499B3
:107110000020009039B9FFE7079890F83C00C0F3D1
:1071200080000090FFE70098C00700284AD0FFE7E2
:107130000798C06C0390039800283ED0FFE703989F
:1071400006F05EFA032838D1FFE7FF208DF80B0028
:10715000039801900798143005F09AFA019A02F109
:1071600014000799527A059BFEF7E6FB04900498F9
:1071700010BBFFE70198FEF72BFD0198006AFFF7AF
:1071800077FE8DF80B009DF80B000199096A91F8C4
:107190003D1088420BD0FFE70198006A07900798DE
:1071A00002210DF10B0207F033FD049003E06FF0B4
:1071B000FE000490FFE7FFE703E06FF0FE0004909D
:1071C000FFE7A4E708B080BD80B586B08446089884
:1071D000CDF814C00491039202938DF807009DF836
:1071E0000700059948720599487A00F0FE00487238
:1071F00004980599C86103980599086205990020CB
:1072000088620299059A51620090FFE70098002871
:107210000CDCFFE70598009900EBC100143005F085
:107220000BF9FFE7009801300090EFE706B080BD52
:1072300080B582B0019000200090FFE70098002800
:107240000CDCFFE70198009900EBC100143005F059
:107250005FFAFFE7009801300090EFE702B080BDD1
:1072600080B582B001909DF9041040F63250C6F20C
:10727000010005F079F802B080BD000000000000B8
:1072800080B582B040F6C550C6F2010005F06CF83A
:107290004EF62950CEF200000190017840F65A7067
:1072A000C6F2010005F060F801980078C00738B117
:1072B000FFE740F64570C6F2010005F055F8FFE71C
:1072C0004EF62950CEF2000000788007002807D53E
:1072D000FFE740F63A70C6F2010005F045F8FFE717
:1072E0004EF62950CEF2000000784007002807D55E
:1072F000FFE740F63870C6F2010005F035F8FFE709
:107300004EF62950CEF2000000780007002807D57D
:10731000FFE740F62E70C6F2010005F025F8FFE702
:107320004EF62950CEF200000078C006002807D59E
:10733000FFE740F63070C6F2010005F015F8FFE7F0
:107340004EF62950CEF200000078000600280CD539
:10735000FFE74EF63850CEF20000016840F6D150FB
:10736000C6F2010005F000F806E041F64260C6F200
:10737000010004F0F9FFFFE702B080BD000000004B
:1073800080B541F66770C6F2010004F0EDFF002001
:1073900080BD00000000000080B586B0059004911B
:1073A0000598022817D0FFE7059801280CD1FFE7C0
:1073B00007F05AFF014642F2C530C6F2010004F060
:1073C000D3FF03F011F93DE042F24040C6F2010064
:1073D00004F0CAFF36E00498406802A90022FBF7D7
:1073E00024FA0390029804994968884209D1FFE77A
:1073F0000498416842F2F540C6F2010004F0B4FF7F
:1074000020E00398B0B1FFE7039806F0F9F80128EF
:1074100010D1FFE7039801900199039A04984368FB
:1074200042F20850C6F2010004F09EFF019803F0FA
:1074300027F907E0039942F26840C6F2010004F020
:1074400093FFFFE706B080BD80B582B00190009148
:1074500001F00AFD002002B080BD00000000000025
:1074600080B584B0029001910298022837D1FFE7DD
:107470000298019940F2FC02C2F2000202F0D8FA2E
:10748000013801460091092825D80099DFE801F06C
:10749000050B110E14171A1D200802F021F81BE02D
:1074A00002F02AF918E001F073FF15E001F0F8FA94
:1074B00012E001F0ADFE0FE001F022FC0CE001F063
:1074C000FFFD09E001F0D0FC06E001F045FD03E01E
:1074D00001F052FA00E003E00020039015E0FFE71E
:1074E00041F6BC30C6F2010004F03EFF41F6B03078
:1074F000C6F2010004F038FF40F2FC00C2F20000C6
:1075000002F0FEFC00200390FFE7039804B080BD6A
:1075100080B582B00190009101F0E2FF002002B03E
:1075200080BD00000000000083B00290019102982D
:1075300002680199B2FBF1F000FB11200090029962
:107540000868019AB0FBF2F00860009803B0704739
:1075500080B582B041F2BC10C2F20000006890F821
:1075600025004008C00740B9FFE740F66450C2F26A
:1075700000000021017001902CE040F6E850C2F2BA
:107580000000006868B1FFE740F6E850C2F2000072
:10759000016840F66450C2F200008022FBF799FABD
:1075A0000AE040F66450C2F2000041F67F11C6F2D4
:1075B0000101FBF7E9F9FFE740F66450C2F2000071
:1075C000009041F68411C6F20101FBF76BFA0098B6
:1075D0000190FFE7019802B080BD000000000000AC
:1075E00080B584B000208DF80B0041F2BC10C2F2CF
:1075F0000000006860B9FFE741F68610C6F201009E
:1076000041F6D211C6F20101A42202F0BDFFFFE74C
:1076100041F2BC10C2F200000068D0F810020190E4
:10762000019820B9FFE74FF0FF30039032E0FFE709
:1076300001984FF0FF310DF10B02012304F094F893
:10764000012823D0FFE741F2BC10C2F200000090F5
:1076500000684FF0FF3106F07BFB00980068D0F81F
:1076600010020199884210D0FFE741F2BC10C2F22B
:1076700000000068D0F810020190019820B9FFE7DF
:107680004FF0FF30039005E0FFE7D1E79DF90B00D5
:107690000390FFE7039804B080BD000000000000E5
:1076A00080B582B00190009141F2BC10C2F200009E
:1076B000006860B9FFE741F68610C6F2010041F6A6
:1076C0009711C6F20101C32202F05EFFFFE741F20B
:1076D000BC10C2F20000006806F0C6FA002002B03A
:1076E00080BD00000000000080B586B0059000203D
:1076F000049041F2BC10C2F20000006860B9FFE7DC
:1077000041F68610C6F2010041F6A411C6F201014D
:10771000D62202F039FFFFE7059803F035FF049009
:10772000049840B9FFE7059941F65910C6F20100E7
:1077300004F01AFE4EE0049841F2BC11C2F20001BE
:107740000968D1F81012884201D1FFE742E004989D
:1077500040F2431103F024FFE0BBFFE741F2BC100D
:10776000C2F200000068D0F8100290B1FFE741F2C9
:10777000BC10C2F2000003900068D0F8100203F0C1
:10778000ABFE03980068D0F81002002104F064F802
:10779000FFE741F2BC10C2F200000190006800F562
:1077A000DD7000210291512205F03AFB0199029807
:1077B0000A68A2F80C020A68A2F80E020498096886
:1077C000C1F81002049847F2A161C6F2000104F06A
:1077D00043F8FFE706B080BD80B582B0019041F26A
:1077E000BC10C2F20000006860B9FFE741F68610E5
:1077F000C6F2010041F6B511C6F20101902202F075
:10780000C3FEFFE79DF8042041F2BC10C2F2000065
:10781000016891F8250002F0010200F0FD0040EA45
:10782000420081F8250002B080BD00000000000089
:1078300082B001900091019840F65451C2F20001CB
:107840000860009840F65851C2F20001086002B08A
:10785000704700000000000080B586B00020049052
:1078600042F60460C6F2010042F68461C6F20101EC
:10787000FFF7DEFF01204FF4057102F01DFF014606
:1078800041F2BC10C2F200000160006850B9FFE78D
:1078900041F64410C6F2010004F066FD4FF0FF30DF
